:100000000C944C000C9456000C9456000C94560022
:100010000C9456000C9456000C9456000C94560008
:100020000C9456000C9456000C9456000C945600F8
:100030000C9456000C9456000C9456000C945600E8
:100040000C9456000C9456000C9456000C945600D8
:100050000C9456000C9456000C9456000C945600C8
:100060000C9456000C9456000C9456000C945600B8
:100070000C9456000C9456000C9456000C945600A8
:100080000C9456000C9456000C9456000C94560098
:100090000C9456000C94560011241FBECFEFD2E0F2
:1000A000DEBFCDBF0E9458000C947F000C9400006E
:1000B00084B1806F84B987B1806F87B985B1806F53
:1000C00085B988B1806F88B98AEA96EEA6E9B1E071
:1000D00081509040A040B040D9F7000085B18F70AA
:1000E00085B988B18F7088B98AEA96EEA6E9B1E041
:1000F00081509040A040B040D9F70000DFCFF89485
:02010000FFCF2F
:00000001FF
