:1000000084C000009DC000009BC0000099C000009B
:1000100097C0000095C0000093C0000091C0000090
:100020008FC000008DC000008BC000009CC200008B
:100030003EC3000085C0000083C0000081C00000F6
:100040007FC000007DC000007BC0000079C00000C0
:1000500077C0000075C0000073C0000071C00000D0
:100060006FC000006DC000006BC0000069C00000E0
:1000700067C000002E034400610072006B0067003F
:1000800061006D006500200043006F006E00740089
:1000900072006F006C006C006500720000001803B5
:1000A0004500640064006F00200053007400650088
:1000B00072006E0000000403090409023E00020100
:1000C0000080FA090400000102020100052400106A
:1000D0000104240206052406000107058203080026
:1000E000FF09040100020A000000070504021000D5
:1000F0000507058302100005120110010200000827
:10010000EB034B2001000102DC0111241FBECFEFE5
:10011000D2E0DEBFCDBF11E0A0E0B1E0E0E9FEE05B
:1001200002C005900D92AC31B107D9F712E0ACE1F5
:10013000B1E001C01D92A034B107E1F737D0A6C6E7
:100140005FCFFC01A281B3818D91B383A28326810D
:100150003781A217B30721F42481358133832283A9
:100160009FB7F8942285338521503040338722870A
:100170009FBF089584B7877F84BF88E10FB6F89446
:1001800080936000109260000FBE90E080E80FB690
:10019000F89480936100909361000FBED5D184B133
:1001A000806F84B987B1806F87B90895E3DF4CE130
:1001B00051E0FA016FB7F89488E291E0918380836F
:1001C000938382839583848388EA91E097838683EF
:1001D00020E830E031872087138612866FBFE8EA77
:1001E000F1E06FB7F89484EB91E09183808393837F
:1001F00082839583848384E392E097838683318727
:100200002087138612866FBF789410EF7A018FB71C
:10021000F89420912601309127018FBF809124010D
:10022000909125012817390729F180E091E0FED54A
:1002300097FD20C095B1912795B998B1912798B9AC
:10024000F701A081B1818C93808191810196918386
:100250008083268137818217930721F484819581D9
:10026000918380832FB7F894828593850196938735
:1002700082872FBF2FB7F8948091B2019091B3017C
:100280002FBF009711F1209101012F702093E900F9
:100290002091E80020FF19C08031910510F08FE017
:1002A00090E0082FC0E0D0E00EC0E091AA01F091EC
:1002B000AB0180E091E060814FD52196882329F43D
:1002C00088EA91E03EDF0C1781F72FB7F894809110
:1002D0002601909127012FBF009719F08CE191E042
:1002E00030DF80E091E08BD54CD491CF0895089514
:1002F00080E091E00DC580E091E05EC4923029F08D
:10030000933041F09130E9F417C08EE390E0EAEBCE
:10031000F0E01BC0813041F0813018F0823089F468
:1003200006C0E6EBF0E005C0EEE9F0E002C0E4E76D
:10033000F0E0849190E009C082E190E0E8EFF0E025
:1003400004C080E090E0E0E0F0E0DA011196FC9378
:10035000EE930895982F2AC09093E900981739F0EA
:100360007091EC002091ED005091F00003C0242F1B
:10037000762F50E021FF19C03091EB003E7F309383
:10038000EB003091ED003D7F3093ED003091EB00BC
:1003900031603093EB007093EC002093ED005093AC
:1003A000F0002091EE0027FF08C09F5F9530A0F27B
:1003B0008F708093E90081E0089580E008950F93A5
:1003C0001F93CF93DF93162FEC0100E02AC0988192
:1003D000992329F16B81E981FA812C81892F8F7012
:1003E000853018F56295660F660F607C991F992716
:1003F000991F692B223010F096E001C092E028E0AE
:1004000030E040E003C04F5F220F331F2E173F073D
:10041000D0F34295407F492B9DDF882331F00F5F59
:1004200025960117A1F681E001C080E0DF91CF9110
:100430001F910F9108958091380287FF11C003C06A
:100440008EB38823B1F08091E80082FFF9CF8091CC
:10045000E8008B778093E80008958EB3882349F0F5
:100460008091E80080FFF9CF8091E8008E7780933B
:10047000E80008958091E4009091E50045E601C010
:10048000C9012091EC0020FF22C02091E80020FD4E
:1004900014C02EB3222399F0253099F02091EB005F
:1004A00025FD11C02091E4003091E500281739079F
:1004B00041F3415029F784E0089580E0089582E0F7
:1004C000089583E0089581E0089580E008952091E3
:1004D000E80022FFDECFF9CF40D042D08091D80093
:1004E0008F778093D8008091D80080688093D8005F
:1004F0008091D8008F7D8093D80084E089BD86E00C
:1005000089BD09B400FEFDCF1EBA109234021092CC
:1005100036021092350280E060E042E01BDF8091FD
:10052000E1008E7F8093E1008091E2008160809302
:10053000E2008091E20088608093E2008091E00018
:100540008E7F8093E0000895E3E6F0E080818E7F67
:10055000808381E080933702BFCF1092E20008953C
:100560001092E10008951F920F920FB60F9211247E
:100570002F933F934F935F936F937F938F939F93AB
:10058000AF93BF93EF93FF938091E10082FF0AC086
:100590008091E20082FF06C08091E1008B7F809312
:1005A000E100EED28091E10080FF16C08091E20070
:1005B00080FF12C08091E2008E7F8093E2008091E4
:1005C000E20080618093E2008091D8008062809395
:1005D000D80019BC1EBA8BDE8091E10084FF2CC0CC
:1005E0008091E20084FF28C084E089BD86E089BD57
:1005F00009B400FEFDCF8091D8008F7D8093D80094
:100600008091E1008F7E8093E1008091E2008F7EF7
:100610008093E2008091E20081608093E20080910B
:100620003402882321F48091E30087FF02C084E034
:1006300001C081E08EBB5ADE8091E10083FF26C0BD
:100640008091E20083FF22C08091E100877F809348
:10065000E10082E08EBB109234028091E1008E7F37
:100660008093E1008091E2008E7F8093E200809190
:10067000E20080618093E20080E060E042E06ADEB8
:100680008091F00088608093F0007AD2FF91EF9122
:10069000BF91AF919F918F917F916F915F914F919A
:1006A0003F912F910F900FBE0F901F9018951F92A2
:1006B0000F920FB60F9211242F933F934F935F9396
:1006C0006F937F938F939F93AF93BF93CF93EF934A
:1006D000FF93C091E900CF708091EC001092E90087
:1006E0008091F000877F8093F0007894E2D01092A0
:1006F000E9008091F00088608093F000C093E900E9
:10070000FF91EF91CF91BF91AF919F918F917F9189
:100710006F915F914F913F912F910F900FBE0F906E
:100720001F90189520913E0230913F0226173707FF
:1007300028F4B901582F492F20E03EC061157105FA
:10074000C9F72091E8002E772093E800F3CF8EB30D
:10075000882309F446C0853009F43FC08091E80041
:1007600083FD3DC08091E80082FD31C08091E800AA
:1007700080FF22C02091F20030E0E52FF42F2E1BE5
:100780003F0B05C081918093F10061507040CF0113
:10079000820F931F6115710519F08830910590F350
:1007A00021E08830910509F020E08091E8008E7703
:1007B0008093E8005E2F4F2F6115710541F62223CB
:1007C00031F605C08EB3882361F0853061F08091E9
:1007D000E80082FFF7CF80E0089583E0089581E08C
:1007E000089582E0089583E0089520913E023091BB
:1007F0003F022617370728F4B901582F492F20E068
:100800003FC061157105C9F72091E8002E7720934C
:10081000E800F3CF8EB3882309F447C0853009F48C
:1008200040C08091E80083FD3EC08091E80082FDD9
:1008300032C08091E80080FF23C02091F20030E0B8
:10084000E52FF42F2E1B3F0B06C084918093F100FF
:10085000319661507040C9018E0F9F1F611571055F
:1008600019F08830910588F321E08830910509F06E
:1008700020E08091E8008E778093E8005E2F4F2F74
:100880006115710539F6222329F605C08EB3882338
:1008900061F0853061F08091E80082FFF7CF80E061
:1008A000089583E0089581E0089582E0089583E04B
:1008B00008950F931F93CF93DF93CDB7DEB7AC9717
:1008C0000FB6F894DEBF0FBECDBF80E0E8E3F2E0E4
:1008D0009091F10091938F5F8830D1F70CDD80917A
:1008E000E80083FF34C1809138022091390225301D
:1008F00009F484C0263040F42130A1F1213070F099
:10090000233009F024C12EC0283009F4F3C0293067
:1009100009F402C1263009F01AC193C0803821F0D1
:10092000823809F014C108C08091350290913602D6
:10093000992371F082600CC080913C028F7080938B
:10094000E9009091EB0081E095FF80E01092E900D2
:100950009091E800977F9093E8008093F1001092C7
:10096000F100D3C0882319F0823009F0F0C090E084
:100970008F719070009729F08230910509F0E7C0DF
:100980000BC080913A02813009F0E1C0233009F0B8
:1009900080E0809336022CC080913A02882341F592
:1009A00020913C022F7009F4D2C02093E90080917D
:1009B000EB0080FF1DC080913902833021F48091CB
:1009C000EB00806213C08091EB0080618093EB00AC
:1009D00081E090E002C0880F991F2A95E2F780938A
:1009E000EA001092EA008091EB0088608093EB00AF
:1009F0001092E9008091E800877F8AC0882309F07F
:100A0000A6C010913A021F770FB7F8948091E800C2
:100A1000877F8093E8000FDD8091E80080FFFCCFA6
:100A20008091E3008078812B8093E300806880933D
:100A3000E300112311F083E001C082E08EBB0FBF01
:100A400086C08058823008F082C080913A0290912E
:100A50003B0223E08C3D9207A9F583E08C838AE278
:100A60008B835FB7F894DE01139680E090E04EE050
:100A700061E2E42FF0E060935700E49180FF03C04F
:100A8000E295EF704F5FEF702E2F30E0EA3018F0F4
:100A9000295C3F4F02C0205D3F4F13963C932E933D
:100AA0001297019612968431910519F75FBF8091D4
:100AB000E800877F8093E800CE0103966AE270E049
:100AC00031DE12C060913C02AE014F5F5F4F16DC19
:100AD000BC01009709F43BC08091E800877F8093B8
:100AE000E80089819A8181DE8091E8008B7780938C
:100AF000E8002DC0803859F58091E800877F809309
:100B0000E800809134028093F1008091E8008E77B4
:100B10008093E80090DC1BC08823C9F490913A02CE
:100B20009230A8F48091E800877F8093E80090934A
:100B3000340281DC80913402882321F48091E30027
:100B400087FF02C084E001C081E08EBBD1DB8091D1
:100B5000E80083FF0AC08091EB0080628093EB0085
:100B60008091E800877F8093E800AC960FB6F894F8
:100B7000DEBF0FBECDBFDF91CF911F910F910895C2
:100B80000895CF938EB38823A9F08091E9008F70E8
:100B90009091EC0090FF02C0C0E801C0C0E0C82BFB
:100BA0001092E9008091E80083FF01C082DECF70DF
:100BB000C093E900CF910895CF93DF93EC0180912A
:100BC000E80083FFA2C0888190E020913C02309130
:100BD0003D022817390709F098C080913902813207
:100BE00069F0823220F4803209F08FC03CC082323A
:100BF00009F46AC0833209F088C079C08091380254
:100C0000813A09F082C08091E800877F8093E800F4
:100C10008091E80080FFFCCF8C899D89AE89BF89D7
:100C20008093F100492F5A2F6B2F77274093F100C3
:100C3000AD01662777274093F1008B2F9927AA27CC
:100C4000BB278093F100888D8093F100898D80937C
:100C5000F1008A8D8093F1008091E8008E77809377
:100C6000E800E9DB52C080913802813209F04DC0C2
:100C70008091E800877F8093E80004C08EB38823CA
:100C800009F443C08091E80082FFF8CF3091F10071
:100C90002091F1009091F1008091F1003C8B2D8B1F
:100CA0009E8B8F8B8091F100888F8091F100898FCE
:100CB0008091F1008A8F8091E8008B778093E80023
:100CC000BADBCE01E2D021C0809138028132E9F452
:100CD0008091E800877F8093E800ADDB80913A0245
:100CE00090913B02998B888BCE01CFD00EC0809122
:100CF0003802813251F48091E800877F8093E800C8
:100D00009ADBCE0160913A02C0D0DF91CF91089575
:100D1000CF93DF93EC014096FC018BE0DF011D9245
:100D20008A95E9F782E08C83898783E08E87CE01FC
:100D3000019661E044DB882359F0CE01069661E01C
:100D40003EDB882329F0CE010B9661E038DB01C041
:100D500080E0DF91CF910895CF93FC01C62F8EB331
:100D60008430E9F4448955896689778941155105AC
:100D700061057105A1F081818F708093E9008091F8
:100D8000E80085FD08C08091E8008E778093E80038
:100D900071DB882329F4C093F10080E001C082E078
:100DA000CF910895FC018EB3843019F5448955899B
:100DB000668977894115510561057105D1F08181F9
:100DC0008F708093E9008091F2008823A1F09091C8
:100DD000E8008091E8008E778093E80095FD0DC0D3
:100DE00049DB882359F49091E8009E779093E800BE
:100DF000089582E0089580E0089580E008952EB37C
:100E0000243099F4FC014489558966897789411514
:100E100051056105710549F021812F702093E9008A
:100E20002091E80020FF01C0BDCF0895FC018EB3E2
:100E3000843029F54489558966897789411551059A
:100E400061057105E1F086818F708093E9008091E2
:100E5000E80082FF17C08091F200882321F0809182
:100E6000F10090E002C08FEF9FEF2091F20022236B
:100E700059F42091E8002B772093E80008958FEF34
:100E80009FEF08958FEF9FEF08950895F894FFCF97
:100E9000008310000001041000000182080000011E
:0C0EA00000000000000000000000000046
:00000001FF
