:100000008EC00000A7C00000A5C00000A3C0000073
:10001000A1C000009FC000009DC000009BC0000068
:1000200099C0000097C0000095C00000FFC200000A
:10003000A1C300008FC000008DC000008BC0000075
:1000400089C0000087C0000085C0000083C0000098
:1000500081C000007FC000007DC000007BC00000A8
:1000600079C0000077C0000075C0000073C00000B8
:1000700071C00000D804FA04DD05FA04DD053C0572
:100080005E05DD05B005C2052E0344006100720067
:100090006B00670061006D006500200043006F0089
:1000A0006E00740072006F006C006C0065007200DE
:1000B000000018034500640064006F002000530036
:1000C0007400650072006E00000004030904090258
:1000D0003E0002010080FA09040000010202010052
:1000E000052400100104240206052406000107056A
:1000F00082030800FF09040100020A00000007054E
:10010000040210000507058302100005120110010A
:1001100002000008501D536001000102DC0111249F
:100120001FBECFEFD2E0DEBFCDBF11E0A0E0B1E057
:10013000EEEFFEE002C005900D92A432B107D9F7B0
:1001400012E0A4E2B1E001C01D92A934B107E1F7C9
:1001500037D0D3C655CFFC01A281B3818D91B38333
:10016000A28326813781A217B30721F42481358128
:10017000338322839FB7F894228533852150310938
:10018000338722879FBF089584B7877F84BF88E124
:100190000FB6F89480936000109260000FBE90E05C
:1001A00080E80FB6F89480936100909361000FBED1
:1001B0002ED284B1806F84B987B1806F87B90895DA
:1001C000E3DFE1E3F2E02FB7F89481EB91E0918374
:1001D0008083938382839583848381E392E09783F2
:1001E000868380E890E091878087138612862FBFF0
:1001F000E5EAF1E02FB7F89485E291E091838083FE
:10020000938382839583848385EA91E097838683B1
:1002100080E890E091878087138612862FBF7894BC
:1002200001E312E0C1E0D0E082E0D82ECC24C394F8
:100230008FB7F89420913B0230913C028FBF8091A0
:10024000390290913A022817390709F470C080E00A
:1002500091E071D597FD6BC020912401211107C059
:100260008434910509F049C0C092240146C0213070
:1002700039F48734910509F040C0D09224013DC083
:100280002230D9F5EBE1F1E020E030E04191BC0112
:10029000022E02C0759567950A94E2F74430B0F4D7
:1002A000F5B050E04C5F5F4FDE01042E01C0AA0F95
:1002B0000A94EAF7A095AF2161707727042E01C058
:1002C000660F0A94EAF7A62BA5B912C058B1DE0151
:1002D000042E01C0AA0F0A94EAF7A095A523617025
:1002E0007727042E01C0660F0A94EAF7A62BA8B957
:1002F0002F5F3F4F2830310549F6F801A081B181C9
:100300008C938081918101969183808326813781AE
:100310008217930721F484819581918380832FB77D
:10032000F894828593850196938782872FBF2FB794
:10033000F8948091AF019091B0012FBF009769F4BC
:100340002FB7F89480913B0290913C022FBF892BEC
:1003500041F181E392E0FFDE24C0209101012F7082
:100360002093E9002091E80020FFEACF8031910539
:1003700010F08FE090E0B82EE12CF12CBE1401F3C8
:10038000E091A701F091A801608180E091E06FD435
:100390009FEFE91AF90A8111D3CF85EA91E0DBDEFC
:1003A000EDCF80E091E0B2D422D442CF08950895F9
:1003B00080E091E037C480E091E0EAC4292F332740
:1003C0002230310559F02330310569F021303105F3
:1003D000F9F482E190E02CE031E01EC08EE390E081
:1003E0002EEC30E019C099278130910541F0823020
:1003F000910541F0892B61F4EAECF0E005C0E2EBF5
:10040000F0E002C0E8E8F0E0849190E09F0104C0D1
:1004100080E090E020E030E0FA013183208308950D
:10042000982F953058F59093E900981739F070910E
:10043000EC002091ED005091F00003C0242F762FA6
:1004400050E021FF19C03091EB003E7F3093EB006C
:100450003091ED003D7F3093ED003091EB00316045
:100460003093EB007093EC002093ED005093F0007C
:100470002091EE0027FF07C09F5FD3CF8F7080933E
:10048000E90081E0089580E008950F931F93CF93D2
:10049000DF93062FEC0110E0101769F19881992382
:1004A00039F12C81E981FA816B81892F8F70853038
:1004B00010F080E021C0223010F056E001C052E080
:1004C00028E030E040E02E173F0720F44F5F220F76
:1004D000331FF9CF4295407F452B991F9927991FCC
:1004E0006295660F660F607C692B9ADF882309F39B
:1004F0001F5F2596D1CF81E0DF91CF911F910F91A2
:1005000008958091410287FD05C08091E80080FF39
:100510000DC010C08091E80082FD04C08EB381112F
:10052000F9CF08958091E8008B7707C08EB38111D1
:10053000ECCF08958091E8008E778093E8000895CD
:100540008091E4009091E50045E62091EC0020FFC9
:1005500020C02091E80020FD20C02EB3222389F086
:10056000253089F02091EB0025FD0FC02091E4009B
:100570003091E5002817390741F3415041F0C90196
:10058000E4CF82E0089583E0089581E0089584E057
:1005900008952091E80022FFE0CF80E0089540D048
:1005A00042D08091D8008F778093D8008091D80076
:1005B00080688093D8008091D8008F7D8093D80088
:1005C00084E089BD86E089BD09B400FEFDCF1EBA76
:1005D00010923D0210923F0210923E0242E060E013
:1005E00080E01EDF8091E1008E7F8093E1008091AA
:1005F000E20081608093E2008091E2008860809355
:10060000E2008091E0008E7F8093E0000895E3E6B1
:10061000F0E080818E7F808381E080934002BFCFB5
:100620001092E20008951092E10008951F920F9237
:100630000FB60F9211242F933F934F935F936F93B5
:100640007F938F939F93AF93BF93EF93FF9380918B
:10065000E10082FF0AC08091E20082FF06C0809123
:10066000E1008B7F8093E100C1D28091E10080FFA7
:1006700016C08091E20080FF12C08091E2008E7F60
:100680008093E2008091E20080618093E20080919B
:10069000D80080628093D80019BC1EBA88DE809191
:1006A000E10084FF2CC08091E20084FF28C084E038
:1006B00089BD86E089BD09B400FEFDCF8091D800D8
:1006C0008F7D8093D8008091E1008F7E8093E10040
:1006D0008091E2008F7E8093E2008091E200816051
:1006E0008093E20080913D02811104C08091E3007B
:1006F00087FF02C084E001C081E08EBB57DE80919D
:10070000E10083FF26C08091E20083FF22C0809138
:10071000E100877F8093E10082E08EBB10923D0272
:100720008091E1008E7F8093E1008091E2008E7FD6
:100730008093E2008091E20080618093E20042E0D9
:1007400060E080E06DDE8091F00088608093F000D2
:100750004DD2FF91EF91BF91AF919F918F917F917A
:100760006F915F914F913F912F910F900FBE0F901E
:100770001F9018951F920F920FB60F9211242F936E
:100780003F934F935F936F937F938F939F93AF9319
:10079000BF93CF93EF93FF93C091E900CF70809107
:1007A000EC001092E9008091F000877F8093F000C8
:1007B0007894D6D01092E9008091F0008860809300
:1007C000F000C093E900FF91EF91CF91BF91AF91FD
:1007D0009F918F917F916F915F914F913F912F9159
:1007E0000F900FBE0F901F901895209147023091E7
:1007F00048022617370748F06115710539F4209132
:10080000E8002E772093E80001C0B90120E06115CF
:100810007105C9F13EB3332309F440C0353009F402
:100820003FC03091E80033FD37C03091E80032FF1F
:1008300006C08091E80082FF29C080E008953091D1
:10084000E80030FFE4CF2091F20030E0FC01281BEB
:10085000390BCF01820F931F6115710549F0883064
:10086000910530F481918093F10061507109F1CFCD
:1008700021E0089709F020E08091E8008E778093CE
:10088000E800CF01C4CF2111C5CFD3CF8EB38823C9
:1008900029F0853071F604C081E0089582E0089562
:1008A00083E00895209147023091480226173707C8
:1008B00048F06115710539F42091E8002E772093F6
:1008C000E80001C0B90120E061157105D1F13EB326
:1008D000332309F441C0353009F440C03091E800B9
:1008E00033FD38C03091E80032FF06C08091E80047
:1008F00082FF2AC080E008953091E80030FFE4CF05
:100900002091F20030E0FC01281B390BC9018E0F49
:100910009F1F6115710551F08830910538F484915D
:100920008093F100319661507109F0CF21E0089772
:1009300009F020E08091E8008E778093E800CF01F5
:10094000C3CF2111C4CFD2CF8EB3882329F08530F5
:1009500069F604C081E0089582E0089583E0089577
:100960000F931F93CF93DF93CDB7DEB7AA970FB640
:10097000F894DEBF0FBECDBFE1E4F2E08091F1005C
:10098000819322E0E934F207C9F715DD8091E80090
:1009900083FF13C12091410230914202832F90E0E6
:1009A0008A30910508F009C1FC01E65CFF4F9FC247
:1009B000203881F0223809F000C1809145028F7003
:1009C0008093E9008091EB0085FB882780F91092E5
:1009D000E90006C080913E0290913F029111826031
:1009E0009091E800977F9093E8008093F100109237
:1009F000F100C1C0822F8D7F09F0DFC0222319F0E2
:100A0000223061F0DAC080914302813009F0D5C014
:100A1000333009F080E080933F0228C08091430288
:100A2000811124C0209145022F7009F4C6C0209383
:100A3000E9008091EB0080FF19C08091EB0033301A
:100A400011F4806211C080618093EB0081E090E03E
:100A5000022E01C0880F0A94EAF78093EA001092F0
:100A6000EA008091EB0088608093EB001092E9002F
:100A70008091E800877F82C021119FC010914302BE
:100A80001F770FB7F8948091E800877F8093E80084
:100A900038DD8091E80080FFFCCF8091E300807812
:100AA000812B8093E30080688093E300112311F091
:100AB00083E001C082E08EBB0FBF7FC02058223090
:100AC00008F07BC080914302909144028C3D23E06A
:100AD000920771F583E08A838AE289834FB7F8949D
:100AE000DE01139620E03EE051E2E32FF0E0509368
:100AF0005700E49120FF03C0E295EF703F5FEF7075
:100B00008E2F90E0EA3010F0C79601C0C0968D930A
:100B10009D932F5F243149F74FBF8091E800877F75
:100B20008093E8006AE270E0CE0101965EDE12C0BA
:100B3000AE014F5F5F4F6091450240DC009709F4C2
:100B40003CC02091E800277F2093E800BC01898108
:100B50009A81A8DE8091E8008B778093E8002DC011
:100B6000203859F58091E800877F8093E8008091D4
:100B70003D028093F1008091E8008E778093E80039
:100B8000C0DC1BC0211119C0909143029230A8F41F
:100B90008091E800877F8093E80090933D02B1DC6C
:100BA00080913D02811104C08091E30087FF02C063
:100BB00084E001C081E08EBBFBDB8091E80083FF15
:100BC0000AC08091EB0080628093EB008091E80086
:100BD000877F8093E800AA960FB6F894DEBF0FBE19
:100BE000CDBFDF91CF911F910F9108950895CF93BD
:100BF0008EB38823A9F08091E9008F709091EC006A
:100C000090FF02C090E801C090E0C92FC82B10925D
:100C1000E9008091E80083FDA3DECF70C093E90076
:100C2000CF910895CF93DF93EC01FC0170968BE098
:100C3000DF011D928A95E9F782E08C83898783E042
:100C40008E8761E0CE01019620DC882361F061E0AF
:100C5000CE0106961ADC882331F061E0CE010B96B6
:100C6000DF91CF9112CC80E0DF91CF910895CF93A7
:100C7000C62F2EB32430F1F4FC01448955896689CE
:100C80007789452B462B472BA9F081818F70809364
:100C9000E9008091E80085FF04C0C093F10080E086
:100CA0000AC08091E8008E778093E80049DC8823B1
:100CB000A1F301C082E0CF9108952EB3243021F535
:100CC000FC014489558966897789452B462B472B3A
:100CD000D9F081818F708093E9008091F2008823A0
:100CE00089F09091E8008091E8008E778093E80089
:100CF00095FD08C025DC811108C08091E8008E7741
:100D00008093E80080E0089582E008952EB32430B7
:100D100089F4FC014489558966897789452B462BDE
:100D2000472B41F021812F702093E9002091E800AA
:100D300020FDC3CF08952EB3243019F08FEF9FEF1D
:100D40000895FC014489558966897789452B462B8E
:100D5000472BA1F386818F708093E9008091E80092
:100D600082FFECCF8091F200882321F02091F100E6
:100D700030E002C02FEF3FEF8091F200811105C0FB
:100D80008091E8008B778093E800C9010895089569
:100D9000CF93DF93EC018091E80083FFA5C08881A9
:100DA00090E020914502309146022817390709F05A
:100DB0009BC080914202813261F020F4803209F4BC
:100DC0003EC092C0823209F46BC0833209F47CC009
:100DD0008BC080914102813A09F086C08091E80081
:100DE000877F8093E8008091E80080FFFCCF4C89EA
:100DF0005D896E897F894093F100BB27A72F962FCD
:100E0000852F8093F100CB01AA27BB278093F100A7
:100E1000472F5527662777274093F100888D8093C9
:100E2000F100898D8093F1008A8D8093F10080918B
:100E3000E8008E778093E800DF91CF9162CB8091BC
:100E40004102813209F050C08091E800877F809391
:100E5000E8008091E80082FD04C08EB38111F9CFD3
:100E600043C03091F1002091F1009091F100809108
:100E7000F1003C8B2D8B9E8B8F8B8091F100888FA6
:100E80008091F100898F8091F1008A8F8091E80034
:100E90008B778093E80035DBCE01DF91CF9177CF60
:100EA00080914102813201F58091E800877F809333
:100EB000E80027DB8091430290914402998B888B54
:100EC000CE01DF91CF9163CF80914102813261F4F5
:100ED0008091E800877F8093E80013DB60914302F4
:100EE000CE01DF91CF9153CFDF91CF910895EE0FD7
:0E0EF000FF1F0590F491E02D0994F894FFCFB8
:100EFE0000831000000104100000018208000001B0
:100F0E0000000000000000000000000504060700BD
:040F1E0001020300C9
:00000001FF
