:1000000084C000009DC000009BC0000099C000009B
:1000100097C0000095C0000093C0000091C0000090
:100020008FC000008DC000008BC00000B3C2000074
:1000300055C3000085C0000083C0000081C00000DF
:100040007FC000007DC000007BC0000079C00000C0
:1000500077C0000075C0000073C0000071C00000D0
:100060006FC000006DC000006BC0000069C00000E0
:1000700067C000002E034400610072006B0067003F
:1000800061006D006500200043006F006E00740089
:1000900072006F006C006C006500720000001803B5
:1000A0004500640064006F00200053007400650088
:1000B00072006E0000000403090409023E00020100
:1000C0000080FA090400000102020100052400106A
:1000D0000104240206052406000107058203080026
:1000E000FF09040100020A000000070504021000D5
:1000F0000507058302100005120110010200000827
:10010000501D536001000102DC0111241FBECFEF1E
:10011000D2E0DEBFCDBF11E0A0E0B1E0E2EBFEE057
:1001200002C005900D92AC31B107D9F712E0ACE1F5
:10013000B1E001C01D92A034B107E1F737D0B7C6D6
:100140005FCFFC01A281B3818D91B383A28326810D
:100150003781A217B30721F42481358133832283A9
:100160009FB7F89422853385215031093387228740
:100170009FBF089584B7877F84BF88E10FB6F89446
:1001800080936000109260000FBE90E080E80FB690
:10019000F89480936100909361000FBEECD184B11C
:1001A000806F84B987B1806F87B90895E3DFECE190
:1001B000F1E04FB7F89488E291E0918380839383D4
:1001C00082839583848388EA91E09783868320E8FD
:1001D00030E031872087138612864FBFE8EAF1E0CE
:1001E0004FB7F89484EB91E091838083938382836B
:1001F0009583848384E392E0978386833187208785
:10020000138612864FBF789480EFF82E0CE111E030
:100210008FB7F89420912601309127018FBF8091EC
:100220002401909125012817390729F180E091E0F8
:1002300061D597FD20C095B19F2595B998B19F25AF
:1002400098B9F801A081B1818C9380819181019648
:1002500091838083268137818217930721F48481DB
:100260009581918380832FB7F89482859385019639
:10027000938782872FBF2FB7F8948091B201909116
:10028000B3012FBF009751F42FB7F8948091260146
:10029000909127012FBF892B39F123C020910101B3
:1002A0002F702093E9002091E80020FFEDCF8031EE
:1002B000910510F08FE090E0E82EC0E0D0E00EC095
:1002C000E091AA01F091AB01608180E091E0ADD4B2
:1002D00021968111D9CF88EA91E033DFEC12F0CF7B
:1002E000D3CF8CE191E02DDF80E091E0EED45DD4BE
:1002F0008FCF0895089580E091E072C480E091E08E
:1003000026C5292F33272230310539F02330310516
:1003100049F02130310521F128C0EEE3F0E08AEB0D
:1003200090E027C099278130910561F082309105D6
:1003300081F0892BD1F4E6EBF0E0E491F0E086EB7C
:1003400090E017C0EEE9F0E0E491F0E08EE990E093
:1003500010C0E4E7F0E0E491F0E084E790E009C049
:10036000E2E1F0E088EF90E004C0E0E0F0E080E05F
:1003700090E0DA018D939C93CF010895982F2CC0C3
:100380009093E900981739F07091EC002091ED00FE
:100390005091F00003C0242F762F50E021FD02C0C1
:1003A0009F5F1AC03091EB003E7F3093EB0030919D
:1003B000ED003D7F3093ED003091EB0031603093E4
:1003C000EB007093EC002093ED005093F00020912F
:1003D000EE0027FDE5CF07C0953090F28F70809337
:1003E000E90081E0089580E008950F931F93CF9373
:1003F000DF93062FEC0110E02EC09881911103C00D
:100400001F5F259628C02C81E981FA816B81892F95
:100410008F70853010F080E021C0223010F056E05F
:1004200001C052E028E030E040E003C04F5F220FFF
:10043000331F2E173F07D0F34295407F452B991F5E
:100440009927991F6295660F660F607C692B96DF6E
:100450008111D6CFE0CF1013D0CF81E0DF91CF91C3
:100460001F910F9108958091380287FD05C08091FA
:10047000E80080FF0DC010C08091E80082FD04C03C
:100480008EB38111F9CF08958091E8008B7707C072
:100490008EB38111ECCF08958091E8008E77809320
:1004A000E80008958091E4009091E50045E62091F0
:1004B000EC0020FD1EC022C02EB3222391F0253077
:1004C00091F02091EB0025FD10C02091E4003091C7
:1004D000E5002817390759F34150C90141F784E075
:1004E000089582E0089583E0089581E0089580E012
:1004F00008952091E80020FFDFCFF9CF2091E80098
:1005000022FFDACFF4CF40D042D08091D8008F774D
:100510008093D8008091D80080688093D800809123
:10052000D8008F7D8093D80084E089BD86E089BDA6
:1005300009B400FEFDCF1EBA1092340210923602AA
:100540001092350242E060E080E018DF8091E10027
:100550008E7F8093E1008091E20081608093E200D1
:100560008091E20088608093E2008091E0008E7FBD
:100570008093E0000895E3E6F0E080818E7F808341
:1005800081E080933702BFCF1092E200089510926D
:10059000E10008951F920F920FB60F9211242F932E
:1005A0003F934F935F936F937F938F939F93AF93FB
:1005B000BF93EF93FF938091E10082FF0AC0809187
:1005C000E20082FF06C08091E1008B7F8093E10012
:1005D000EBD28091E10080FF16C08091E20080FFA5
:1005E00012C08091E2008E7F8093E2008091E20051
:1005F00080618093E2008091D80080628093D8006F
:1006000019BC1EBA77DE8091E10084FF2CC0809176
:10061000E20084FF28C084E089BD86E089BD09B47A
:1006200000FEFDCF8091D8008F7D8093D80080910F
:10063000E1008F7E8093E1008091E2008F7E8093C5
:10064000E2008091E20081608093E20080913402B8
:10065000811104C08091E30087FF02C084E001C0E3
:1006600081E08EBB46DE8091E10083FF26C0809151
:10067000E20083FF22C08091E100877F8093E10048
:1006800082E08EBB109234028091E1008E7F8093D5
:10069000E1008091E2008E7F8093E2008091E20091
:1006A00080618093E20042E060E080E067DE80915C
:1006B000F00088608093F00077D2FF91EF91BF91B6
:1006C000AF919F918F917F916F915F914F913F91EA
:1006D0002F910F900FBE0F901F9018951F920F92A1
:1006E0000FB60F9211242F933F934F935F936F9305
:1006F0007F938F939F93AF93BF93CF93EF93FF938A
:100700008091E9008F709091EC0090FF02C090E81A
:1007100001C090E0C92FC82B1092E9008091F00031
:10072000877F8093F0007894D9D01092E90080916F
:10073000F00088608093F000CF70C093E900FF91D3
:10074000EF91CF91BF91AF919F918F917F916F91D9
:100750005F914F913F912F910F900FBE0F901F907F
:10076000189520913E0230913F022617370748F036
:100770006115710539F42091E8002E772093E80087
:1007800001C0B9019C0180E033C09EB3992309F4F4
:1007900042C0953009F441C09091E80093FD39C002
:1007A0009091E80092FD2FC09091E80090FF20C04A
:1007B0008091F20090E0F901821B930B05C021911A
:1007C0002093F100615071099F01280F391F6115B5
:1007D000710519F02830310590F381E0283031059A
:1007E00009F080E09091E8009E779093E8009F01E7
:1007F0006115710551F68111C8CF05C08EB38823EC
:1008000051F0853051F08091E80082FFF7CF80E011
:10081000089581E0089582E0089583E0089520918D
:100820003E0230913F022617370748F061157105E7
:1008300039F42091E8002E772093E80001C0B90137
:100840009C0180E034C09EB3992309F443C09530E5
:1008500009F442C09091E80093FD3AC09091E800FD
:1008600092FD30C09091E80090FF21C08091F2008D
:1008700090E0F901821B930B06C024912093F100B4
:100880003196615071099C012E0F3F1F6115710552
:1008900019F02830310588F381E02830310509F05E
:1008A00080E09091E8009E779093E8009F016115A9
:1008B000710549F68111C7CF05C08EB3882351F069
:1008C000853051F08091E80082FFF7CF80E00895F5
:1008D00081E0089582E0089583E00895EF92FF9209
:1008E0000F931F93CF93DF93CDB7DEB7AC970FB6BF
:1008F000F894DEBF0FBECDBFE8E3F2E08091F100D7
:10090000819322E0E034F207C9F7F8DC8091E80037
:1009100083FF2FC18091380290913902953009F4FC
:1009200087C038F49130B1F170F0933009F021C1F3
:1009300031C0983009F4F3C0993009F4FFC0963003
:1009400009F017C19BC0803821F0823809F011C12D
:1009500008C08091350290913602992389F0826017
:100960000FC080913C0290913D028F709927809337
:10097000E9008091EB0085FB882780F91092E9005F
:100980009091E800977F9093E8008093F100109297
:10099000F100D0C0882319F0823009F0EAC08F71CD
:1009A00021F0823009F0E5C00BC080913A0281301D
:1009B00009F0DFC0933009F080E0809336022FC049
:1009C00080913A0281112BC080913C0290913D02AE
:1009D0008F709927009709F4CCC08093E90020918B
:1009E000EB0020FF1CC020913902233021F48091BC
:1009F000EB00806212C09091EB0090619093EB004D
:100A000021E030E001C0220F8A95EAF72093EA0046
:100A10001092EA008091EB0088608093EB001092C6
:100A2000E9008091E800877F8093E8001CDDA1C089
:100A300081119FC000913A0210913B020F7711275C
:100A4000E02EFFB6F8948091E800877F8093E8005D
:100A50000ADD8091E80080FFFCCF8091E300807880
:100A6000802B8093E30080688093E300EE2011F0F8
:100A700083E001C082E08EBBFFBE7BC08058823025
:100A800008F077C080913A0290913B028C3D23E0C0
:100A9000920771F583E08A838AE289834FB7F894DD
:100AA000DE01139620E03EE051E2E32FF0E05093A8
:100AB0005700E49120FF03C0E295EF703F5FEF70B5
:100AC0008E2F90E0EA3010F0C79601C0C0968D934B
:100AD0009D932F5F243149F74FBF8091E800877FB6
:100AE0008093E8006AE270E0CE0101963ADE11C020
:100AF000AE01455D5F4F60913C0203DC0097C9F198
:100B00002091E800277F2093E800BC018BA59CA5DD
:100B100086DE8091E8008B778093E8002AC08038D9
:100B200041F58091E800877F8093E800809134024E
:100B30008093F1008091E8008E7776CF811119C003
:100B400090913A029230A8F48091E800877F8093D8
:100B5000E8009093340287DC80913402811104C054
:100B60008091E30087FF02C084E001C081E08EBB7A
:100B7000C2DB8091E80083FF0AC08091EB008062B5
:100B80008093EB008091E800877F8093E800AC962B
:100B90000FB6F894DEBF0FBECDBFDF91CF911F918E
:100BA0000F91FF90EF9008950895CF938EB388230F
:100BB000A9F08091E9008F709091EC0090FF02C045
:100BC00090E801C090E0C92FC82B1092E9008091F5
:100BD000E80083FD83DECF70C093E900CF910895D4
:100BE000CF93DF93EC014096FC018BE0DF011D9277
:100BF0008A95E9F782E08C83898783E08E8761E0BC
:100C0000CE010196F2DB882361F061E0CE01069609
:100C1000ECDB882331F061E0CE010B96DF91CF91C0
:100C2000E4CB80E0DF91CF910895CF93C62F2EB310
:100C30002430F1F4FC014489558966897789452B74
:100C4000462B472BA9F081818F708093E90080911A
:100C5000E80085FF04C0C093F10080E00AC08091E5
:100C6000E8008E778093E8001DDC8823A1F301C0A3
:100C700082E0CF9108952EB3243029F5FC014489F8
:100C8000558966897789452B462B472BE1F0818171
:100C90008F708093E9008091F200811102C080E0A2
:100CA00008959091E8008091E8008E778093E800A5
:100CB00095FDF5CFF7DB811107C09091E8009E7795
:100CC0009093E800089582E008952EB3243089F4CB
:100CD000FC014489558966897789452B462B472B2A
:100CE00041F021812F702093E9002091E80020FD40
:100CF000C2CF08952EB3243019F02FEF3FEF24C058
:100D0000FC014489558966897789452B462B472BF9
:100D1000A1F386818F708093E9008091E80082FFC3
:100D2000ECCF8091F200882321F02091F10030E097
:100D300002C02FEF3FEF8091F200811105C080913A
:100D4000E8008B778093E800C90108950895CF9358
:100D5000DF93EC018091E80083FFA6C0888190E0DA
:100D600020913C0230913D022817390709F09CC0C0
:100D700080913902813261F020F4803209F094C010
:100D80003DC0823209F46CC0833209F08DC07CC052
:100D900080913802813A09F087C08091E800877F0E
:100DA0008093E8008091E80080FFFCCF4C895D894A
:100DB0006E897F894093F100BB27A72F962F852F3F
:100DC0008093F100CB01AA27BB278093F100472F26
:100DD0005527662777274093F100888D8093F1008F
:100DE000898D8093F1008A8D8093F1008091E800D5
:100DF0008E778093E800DF91CF9135CB80913802D8
:100E0000813209F051C08091E800877F8093E8002B
:100E100004C08EB3882309F447C08091E80082FFA4
:100E2000F8CF3091F1002091F1009091F100809184
:100E3000F1003C8B2D8B9E8B8F8B8091F100888FE6
:100E40008091F100898F8091F1008A8F8091E80074
:100E50008B778093E80007DBCE01DF91CF9176CFCF
:100E600080913802813201F58091E800877F80937C
:100E7000E800F9DA80913A0290913B02998B888BD5
:100E8000CE01DF91CF9162CF80913802813261F43F
:100E90008091E800877F8093E800E5DA60913A026C
:100EA000CE01DF91CF9152CFDF91CF910895F89489
:020EB000FFCF72
:100EB20000831000000104100000018208000001FC
:0C0EC20000000000000000000000000024
:00000001FF
